:20000000004B0020C511000001CA011001CA011001CA011001CA011001CA011001CA011077
:1C00200001CA011001CA011001CA011001CA011001CA011001CA01103FCA011082
:20003C00264838B550380468B4F1FF3F08BF002401F066FB22481749002510380560012078
:20005C0008601549086000F0F3FF1448006820B113480068204600F0BFFC124812490560F1
:20007C00124C0A686FF35B4244EA0200086010490868C0F30130012806D10A680D48104039
:20009C0040F400320A6008600B4908680028FCD138BDC0465C600C400822044380012843F3
:2000BC00000120438C210840482003400000390104000940FFFFFCFC0C0068426C1300501E
:2000DC0094046042202838BF002008D304480C300068C10C01F44071C0F3845008437047A4
:0400FC008C13005011
:200100003C000000000000000000000034010000000000000000000001000000000000006D
:1C01200000000000000000000000000001000000000000000800000000000000BA
:20013C00340000000000000000000000680100000000000000000000010000000000000005
:14015C00010000000000000000000000080000000000000086
:2001700030000000000000000000000098010000040000000000000001000000FFFFFFFFA5
:10019000FF00000001000000080000000000000057
:2001A0002C0000000000000000000000C4010000040000000000000001000000FFFFFFFF4D
:0C01C000FFFFFFFF08000000000000002F
:2001CC0034050000E401000099A1011095A70110A5C2011009B2011045B80110000000000B
:0801EC00000000002D000000DE
:2001F400280000000000000000000000140200000000000000000000FFFFFFFF00000000B1
:080214000800000000000000DA
:20021C00300500003002000069C201106DC101101FC2011095BA011000000000000000008E
:04023C002F0000008F
:20024000300500005402000075C20110A9B601109DBF011049B601100000000000000000DE
:04026000300000006A
:200264002400000000000000000000008002000000000000000000000000000008000000CC
:040284000000000076
:20028800240000000000000000000000A40200000000000000000000000000000800000084
:0402A8000000000052
:2002AC00240000000000000000000000C8020000000000000100000000000000080000003B
:0402CC00000000002E
:2002D000000000002003002004000000000000000000000020000000700100003000000006
:2002F0001C0200004C0300200400000000000000000000000C000000300400001800000005
:20031000400200005803002004000000000000000000000024000000480400001800000084
:20033000000000006003002004000000000000000000000010000000A00100002C00000049
:20035000CC0100006803002004000000000000000000000020000000640200002400000087
:20037000FFFFFFFF88030020040000000000000000000000280000008802000024000000EC
:20039000FFFFFFFFB8030020040000000000000000000000580000003C01000034000000A9
:2003B000FFFFFFFFC0030020040000000000000000000000100000006004000018000000BE
:2003D000FFFFFFFFC80300200400000000000000000000001C000000AC0200002400000034
:2003F000FFFFFFFFD003002004000000000000000000000038000000F401000028000000A5
:20041000FFFFFFFFD803002004000000000000000000000054000000000100003C00000040
:1804300018000000000000000000000040040000080000000000000050
:1804480018000000000000000000000058040000080000000000000020
:18046000180000000000000000000000700400000800000000000000F0
:0804780001000000441900001E
:0404800000207047A1
:040484000100000073
:0404880000000E0062
:04048C0000000F005D
:040490003200000036
:040494000100000063
:040498002803002015
:04049C00000200005A
:0404A0000000000058
:0404A40001CA011078
:0404A8000000000050
:0404AC00000000004C
:0404B0000800000040
:0404B4000000220022
:0404B800800400209C
:0404BC00010000003B
:0404C00070030020A5
:0404C400080000002C
:0404C8000000000030
:0404CC00000000002C
:0404D0000000000028
:0404D4000000000024
:0404D8000000000020
:0404DC00010000001B
:0404E000E80400200C
:0404E400060000000E
:0404E800010000000F
:0404EC00E803002001
:0404F0000000000008
:0404F4000000000004
:0404F80000020000FE
:0404FC0000000000FC
:02050000FEE714
:020502002900CE
:020504000100F4
:020506002500CE
:020508002F00C2
:02050A003000BF
:02050C002D00C0
:02050E000100EA
:0105100001E9
:08051400030000003019000093
:08051C000000000000000000D7
:0405240000000100D2
:0405280000000300CC
:04052C0087C401106F
:04053000380500008A
:040534003805000086
:0405380000000000BF
:04053C00900000002B
:040540009000000027
:0405440000000000B3
:04054800700300201C
:04054C00591700003B
:040550002000000087
:040554001C1900006E
:04055800F81800008F
:04055C000DC30110BA
:040560000717000079
:040564006B17000011
:0405680099C801101D
:04056C009BC8011017
:040570000000000087
:040574002E1900003C
:04057800C81800009F
:04057C00E018000083
:04058000B0180000AF
:0205840008006D
:0205860009006A
:02058800010070
:02058A0000006F
:01058C00016D
:040590000000000067
:040594000000000063
:04059800000000005F
:04059C00000000005B
:0405A0000B18000034
:0405A40049120000F8
:0405A80081140000BA
:0405AC0079130000BF
:0405B000B512000080
:0405B400A913000087
:0405B800390F0000F7
:0405BC00A91700007B
:0405C0009D0F00008B
:0405C40011C8011049
:0405C80021C8011035
:0405CC000800000023
:0405D0002400000003
:0405D400180000000B
:0405D80028000000F7
:0405DC0020000000FB
:0405E0003C000000DB
:0405E4000C00000007
:0405E80034000000DB
:2005EC002DE9F0411C4615468C4208BF854282BF00230022E5E0002C08BF002D0AD1002920
:20060C000EBF00286FF000006FF0000100F0E1F8BDE8F0815FF000085FF0000E002C08BF94
:20062C008D429CBF2C1C0025070C47EA01470E0CB44208BFBD429EBF5FEA044444EA154440
:20064C005FEA0545070A47EA01670E0AB44208BFBD429EBF5FEA042444EA15645FEA052595
:20066C00470847EAC1774E08B44208BFBD4200F29380870847EA81778E08B44208BFBD4295
:20068C007CD8C70847EA4177CE08B44208BFBD4266D8070947EA01770E09B44208BFBD42E6
:2006AC0050D8470947EAC1674E09B44208BFBD423AD8870947EA81678E09B44208BFBD423C
:2006CC0024D8C70947EA4167CE09B44208BFBD420DD8E60146EA5566EF01B14208BFB8427B
:2006EC0001D3C01BB14158EB08085EEB0E0EA60146EA95664FEA8517B14208BFB84201D366
:20070C00C01BB14158EB08084EEB0E0E660146EAD5666F01B14208BFB84201D3C01BB141C1
:20072C0058EB08084EEB0E0E260146EA15762F01B14208BFB84201D3C01BB14158EB08084B
:20074C005EEB0E0EE60046EA5576EF00B14208BFB84201D3C01BB14158EB08084EEB0E0E5B
:20076C00A60046EA9576AF00B14208BFB84201D3C01BB14158EB08084EEB0E0E660046EA4A
:20078C00D5766F00B14208BFB84201D3C01BB14158EB08085EEB0E0EA14208BFA84201D31E
:2007AC00401BA14158EB08085EEB0E0EA34208BFAA423EBF2D0A45EA0465240A89D3734691
:2007CC0042461E4617460B46024631463846BDE8F08170472DE9F041424C474D8046C8F37F
:2007EC008140401E02D0401E2AD025E0284620300168880C20D24FF4804020603A48D0F825
:20080C0002204B0AC1F3033703F0800322F08F02134347EA0302C0F80220D0F801300E12CF
:20082C0066F30303C0F80130026801F0E70722F0E70247EA020102E04FF0004120460160C3
:20084C002A4E06F108000068C0F3C0070FB94020A0624FF40070206400F082FF40F0300001
:20086C0084F8C800C8F3815038B3401E03D0401E1ED002211DE0012000F054FE0746042040
:20088C00394600F005FC042000F04CFE8742FAD1366826F07F4000F021FD15480068036839
:2008AC0007214FF06022300E98474FF4806020600321042000F0ECFB06E00420012100F048
:2008CC00E7FB0C4800F00AFD284600680B4947F6180700F03F0084F8CB0F094E0F80306856
:2008EC00BDE8F08140A00C400A600840A83F0050B4010010BD3786006C13005070B00C4047
:20090C002C2009407CB50446084600F0DBFA344E02461821304600F059FD00F01FFE40F2AA
:20092C00FF32002380B22C210090304600F020FC00F01EFF1C210246304600F047FD00F09A
:20094C00FFFD02461421304600F040FD00F052FE02461021304600F039FD204600F046FA84
:20096C0002460C21304600F031FD204600F02AFE1C4D400040F020002870204600F02EFED1
:20098C0040F0100028702046FFF7A4FB02462821304600F01BFD204600F038FE400040F06D
:2009AC006000E870204600F03DFEC00040F0800005F8080C204600F041FE800040F47C405C
:2009CC00A5F89300204600F017FD02460821304600F0FCFC4FF48000A5F2091108607CBD8D
:2009EC0000A00C4049A10C40294A2DE9F04180460126284816600768002FFCD0294C2A4FE4
:200A0C00C020443C206007F1080001682348890804D20168090C41F0F00100E072211E4D31
:200A2C0085F85412002111638768384600F06AF940463946FFF766FF1C48B038816D40F2A6
:200A4C000F226FF31F418A4212D901680068C1F30363C0F3034003B15B1E072805D00628A0
:200A6C000EBF0720801C00F00F0043EA001028703846FFF7AFFE0E4814380068C168022090
:200A8C00884740202060064F3E60BDE8F081C046101009409402224302600840AC3F005043
:200AAC009404604244600C40A83F00506C130050B4010010F0B520480127F84201D000F005
:200ACC000DFB204D204F214EBD4206D203CD0478A4003459401CA047F6E71D48002800D0E6
:200AEC008047164D164FBD4202D210CDA047FAE7F0BD03251BE0416808300A1C2A400BD1C6
:200B0C001A1C2A40AB4305D0046804300C600431043BF9D1131C05D0047801300C700131BD
:200B2C00013BF9D1021C2A4001D0A84304300368002BE0D17047C046FFFFFFFF000000002B
:200B4C0000000000401C0000A01C0000E81B000059C50110002A4AD05FEA000C8B071CD127
:200B6C00830722D1102A08D370B4103A78C978C0103AFBD270BC103238D0042A2CD3082A04
:200B8C0005D30C2A24BF08C908C008C908C008C908C092072AD0920F22E00B780370491CFC
:200BAC00401C521E22D08B07F7D1C30714D18307D8D0121F12D308C903801B0C4380001DBF
:200BCC00121FF8D20AE008C903701B0A43701B0A83701B0AC370001D121FF4D2121D05D080
:200BEC000B780370491C401C521EF9D1604670472DE9F8432020EFF3118780F31188214C17
:200C0C00A068012100F04AFE4FF001094FF0000865692168A4F81C906A1A2168A4F81E80F0
:200C2C00461B401A904227D387F3118840464519361A4846294600F02DFEB042F7D92021BF
:200C4C00EFF3118781F31188E18B012903D14046294600F01FFEB0F1FF3F06D0A169801B3B
:200C6C00814238BF081C411901E0A069291800F00DFEA4F820902560A4F81C8087F31188EE
:200C8C00BDE8F88378010020002213460A46194671B510F0030F0BD0002A82BF00F8011BD3
:200CAC00B2F1010210F0030FF6D1002A08BF71BD11F0FF0141EA0121042A18D341EA0141B6
:200CCC00082A0FD30E46102A08D30C460D46B2F10F0312F00F0272C0103BFCD812F0080FB4
:200CEC0018BF42C012F0040F18BF40F8041B12F0020F18BF20F8021B12F0010F18BF017053
:200D0C0071BD70470246184808B50068C0F3046000F036FD00EB2270401C162805DA10F1E4
:200D2C000A0FB8BF6FF0090000E015200F49104B00F01F0040F4F85008801868800803D2F7
:200D4C000C490020086001E042F040620A49D00E930E80F0010000F00100086083F00100E5
:200D6C0000F00100886008BDB81200506E6208400000094094042A43000020431A4898B537
:200D8C00D0F8781203680F0F03F0FF03802B28BF002300F0C9F94FF0FF3478B1401E07D040
:200DAC00401E012802D9801E19D01AE0BFB118E0381C12D0801E14D1143311E03846401E0F
:200DCC000BD0801E07D0001F03D0401E09D1163306E0152405E0142403E00A2401E00A33D9
:200DEC005CB2204698BDC046A010005038B504461848174DC03002686B68C2F30351C2F332
:200E0C0003405B0813D22B681D0511EB257103D41029A8BF0F2100E000211B0410EB23739C
:200E2C0003D4102BA8BF0F2300E00023184640EA011002F47F4102F0FF03222C41EA0041FB
:200E4C0043EA010024BF02F08042104338BDC046AC3F0050B81200502DE9F041054615F87F
:200E6C00017B90460E461CE0B8F1000F05F101050BD0FF2C09D8022015F8011B401E41EA55
:200E8C000424F9D101E0042C02D315F8011B00E0394630462246FFF7FBFEA61901E006F87B
:200EAC00010B15F8010B8742F9D115F8014B002CE9D115F8010B2C7800022418D4D1BDE8EA
:200ECC00F08170470146184880B5983000688A0CC0F38367C0F38F2022D241F307210029C4
:200EEC000BD54A420021400805D17F0806BF0127381C4FF6FF70521EF5D1002910DD4FF62E
:200F0C00FF72400040F00100824207D2780040F001070F2F92BF01200F27101C491EF0D15C
:200F2C0040EA074080BDC046B81200502DE9F8438146EFF31188202080F311880125114E73
:200F4C00114CF561114F6560F86A016A14208847D9F81000810C14BF000C0420A0613868CB
:200F6C000268232100209047C6F88052206820F4C02040F480302060356088F31188BDE802
:200F8C00F883C0460000244300200940840100101549096821280ADC212819D00C380FD00C
:200FAC000D380FD0001F0FD0C01E0FD01AE0253810D0001F10D0401E10D0401E10D011E0A3
:200FCC00086870474868704788687047C8687047086970474869704788697047C8697047C9
:200FEC00086A704700207047F0010020012838B51ED1012000F096FA01281BD000F0D6FA5A
:20100C000D4D0E480122322305F1E00100680A70B3FBF0F404B914463035284600F072FA0B
:20102C002846214600F02EFC284600F027FC01E000F020F9002038BD080200203C190000B6
:20104C000F4908680028FCD1104A131D0D49186820F0030001430C480068C0080CD2106836
:20106C0010F0030F0AD041F003001860106800F003000328FAD101E041F001011960704727
:20108C000C00684204000020B03F0050004003407CB5114D04460E46600807D3B0B20021B6
:2010AC00009001220B46284600F062F8A00807D3B0B20090002102220123284600F058F8DD
:2010CC00E00807D3B0B2009000210C220223284600F04EF87CBDC04600A00C40F8B5064614
:2010EC000F4D104F7388002417E0A00000EBC400321851689068D26852B9AF420BD00A7836
:20110C0055F822200346491C08461946904701E0FFF720FD7388641CA4B2A342E5DCF8BDE2
:20112C00E81B0000F41B0000104A1068C0F30F314BF69A10884207D111680B20B0EB117F70
:20114C0014BF0020042070472430884208BF01200BD04BF64130884208BF032005D0213840
:20116C0088420CBF02204FF0FF30704718130050B0B500EB4100102B04AF00F5007403D34E
:20118C00103B00F50174120C3D889D4045EA024500F00BFB002700B90127064A3946106813
:2011AC000028FCD025600120106009B100F003FBB0BDC04600800C400C4885460C488544F6
:2011CC006F4607208743BD460A486F4607600A48002803D07946491D8E460047FFF76AFC03
:2011EC0000F050FA00F046FBFEE7C046004B00200004000034040020DB170000F8B51E46C3
:20120C0014460D18102E02D3103EAD1C240C00F0CCFA002700B9012707483B460768002FBD
:20122C00FCD02D88012101600BB100F0C4FA2C403441A0B2F8BDC04600800C402DE9B04371
:20124C000F46044600F0DBFA04F1280292E800034B464246FFF7C4F905460B462A46404624
:20126C00494600F01BFA17B1303484E803002846BDE8B08310B503200021FFF709FF0120C5
:20128C0000F050F918B10648006800F0DFF800F081F9044C083C606000F0C4F8206110BD0B
:2012AC00800000102028002070B5044604F128020CCA0846002100F0F1F904F1300292E8DC
:2012CC0060002D1846EB0106290C3004014300F065F8383484E8600070BDFEE70949020489
:2012EC0080B5120C41F8082CC0F3074041F8040C0120086004480768002FFCD00020086018
:20130C0080BDC04644600C4084088C4310B500F0ADFA00F0A7FA032000F0A0FA064810300B
:20132C00006830B1034C204600F000FA204600F0FAF910BD31170000A401002008B500F0E9
:20134C004DFA012801D0FFF7D5F8074800F082FA00F0A4F800F07AFA00F074FA00F06EFA1C
:20136C0000F068FA08BDC04619130000084910B5002008600120C861064CA062A16A206051
:20138C0005480068016A14208847A06A10BDC0460000244304200940B001001010B50C4695
:2013AC0000F0F8F8211AB1F1004F08D8011B091DC90F05D1001DA04288BF041C00E0041DDE
:2013CC0001481830046010BD00200940B0B515460C1800F0EAF9002700B90127054A394649
:2013EC0010680028FCD025600120106009B100F0E2F9B0BD00800C40202838BF07480CD334
:20140C0007480C30016808038215920500F47C1001F00F01104340EA0130704700803F40AE
:20142C008C1300500748816841F31002064991F900100068A0F5407041430811121A803222
:20144C0010127047285009400C13005070B5054600F0ABF9002400B90124054E306800285E
:20146C00FCD0A847012030600CB100F0A4F970BD00800C4008B5283090E80C0005A003C8A8
:20148C00FFF7AEF8002908BFB0F1FF3F88BF4FF0FF3008BD00000000907E0000074808B541
:2014AC001030006828B1034800F040F9024800F03AF908BDF1140000C1160000A401002058
:2014CC00074810B51030006830B1044C204600F02DF9204600F027F910BDC0460F0D000032
:2014EC00A401002010B5064C206900F09FF90146A06800B9E160A068401CA06010BDC04673
:20150C00A4010020002181820449C0684969814203D10348006800F0B1B9704778010020BB
:20152C0040190000042807BF4FF0C0421D234FF080521C2301483421FFF760BE00A00C40E5
:20154C000548BC3001680348084001F07C4108437047C046FCFCFC00B8120050054998316F
:20156C0008680968C0F3870001F0030140EA01207047C046B812005008B50548034A41682D
:20158C000120106048698969884708BD04200940E401002004480168436802688A42FAD1A4
:2015AC00080440EA134070470820094008B503200121FFF76DFDFFF7EDFF0149086008BDB3
:2015CC0020280020222804D303480068C0F30070704701207047C0468C130050222804D3FB
:2015EC0003480068C0F34070704701207047C0468C1300500448B830006800F47C01000434
:20160C00000C08437047C046B8120050202805D303480C300068C0F30150704700207047EF
:20162C008C130050222804D303480068C0F3C060704700207047C0468C130050222804D364
:20164C0003480068C0F34550704700207047C0468C130050044908B591F8E60018B1D1F8F5
:20166C000C0100B1804708BD08020020012814BF002140F2FF71024A002011607047C04691
:20168C00000004600449B1F1FF3F07BF0020011C0868091D00F0A8B8FFFFFFFF30B502FBE6
:2016AC0001F403FB00444FF00005E2FB00542146284630BD04498868401E886003D10869E8
:2016CC00C96800F0AFB87047A4010020034804490068814201D0FFF700BE704798CA011088
:2016EC007047282010B50446FFF7EAFE032000F0B5F8204600F0BEF810BDFEE7034A1168AE
:20170C00506813688B42FAD17047C0460820094008B5FFF709FD18B9FFF730FB162800DA01
:20172C00FEE708BD70470349086070470149091F086070474C05002008B500F06FF8024871
:20174C00006800F067F808BD8401002000B50921ADF1240D684600F059F809B000BD704792
:20176C0002480068C0F3C1407047C0468C1300500248C4300068C0F30D007047B812005014
:20178C0001461628A8BFA0F1200108467047D0F80320C31D08461946FFF7DCB908B500F0EA
:2017AC002EF8000C0904084308BDEFF3108072B6704700207047EFF3108062B67047002045
:2017CC007047D0F8032008460021FFF761BA08B5FEF72EFCFFF77AFF08BD00000148C0883A
:2017EC007047C046F001002008B500F00BF8002008BD4FF0FF3070470122FFF72DBBFFF75E
:20180C007DBF0000DFF800F055C00110DFF800F00DC30110DFF800F021B30110DFF800F078
:20182C0067BE0110DFF800F04DC20110DFF800F049C20110DFF800F009C30110DFF800F031
:20184C003DC20110DFF800F08DC20110DFF800F095B70110DFF800F081C60110DFF800F03B
:20186C0045C00110DFF800F0F5C00110DFF800F0D5C00110DFF800F0D1C70110DFF800F015
:20188C00E3BF0110DFF800F0C1C20110DFF800F0BDBE0110DFF800F00DA80110DFF800F087
:0418AC0095C00110D2
:2018B0007B756E6B6E6F776E2D696E7374616E63652D6E616D657D007B656D7074792D6980
:2018D0006E7374616E63652D6E616D657D00C0467B7374617469632D696E7374616E636536
:2018F0002D6E616D657D00C07FC80110C9BC011051B2011037C20110BDAD0110C1B10110C3
:2019100071BA011069BB011021C00110010000000000000000000000000001000000000052
:1819300045B5011099A6011019B801100A00000090030020611600002E
:20194800000606DC00010607000101061A0079160000F90F000081040606001803002018EC
:2019680003002020030020200300200608008515000003000000FF0014060700C0460608D7
:20198800004C0300204C0300201C02000058030020580300206003002060030020680300DC
:2019A8002068030020CC0100000800000050050020060500200000080000008803002088C4
:2019C8000300209C0100209C0100200100000001060B00CF0E060600B0030020B0030020C0
:2019E800B8030020B8030020C0030020C0030020C8030020C8030020D0030020D0030020A7
:201A0800D8030020D8030020E8030020FF170000E8030020E8030020060400010607000475
:201A2800060800020000502500200604000BC201100610000106170001060B00C5A7060653
:201A4800004517060800010028030020C5A7060E00C5A7060600C5A70606004002060A0006
:201A680001060500010094040020940400204002060A00010605000100B0040020B00400FA
:201A880020B8040020B8040020C0040020C0040020C8040020C8040020D0040020D00400FE
:201AA80020D8040020D8040020E0040020E0040020E8040020E8040020FD0B060A000500C9
:201AC800000020060F00E0040020060400180500201805002020050020200500202805008A
:201AE8002028050020300500203005002038050020380500204005002040050020311700FB
:201B0800003117000006000000000000000000000002020400400300204403002048030052
:201B2800200205004B00200004020500200101000050270020020C00020000000000000037
:201B4800000201020B0001020B0018050020021000E003002002040034010020340100205D
:201B68003C0100203C0100200200000000000000000202080038040020E80400200100002C
:201B88000001020F009003002090030020020000000000000000000000010105006CDC0272
:201BA8000108009C0400200301070049130000F11600000100000000000201021300B80411
:201BC800002002040002000000000000000000000001010400380400200100000000000072
:201BE800051800009B170000CF17000000000000000108000000010000000000000000001E
:201C08000001010400010000000000000000000000010108000100000000000000000000AA
:201C28000001010800010000000000000000000002000000DC220000481900000802002006
:201C4800181B000044010020481B000000010020781B000078010020A01B0000A4010020B4
:201C6800C01B0000C8010020D81B0000E4010020F81B000000020020081C0000EC0100203A
:181C8800181C0000F0010020281C0000F8010020381C000050050020D9
:020000040001F9
:20FFA80000008001100082FFFDFF58003AFFBFF3FFFFFFFFFFFFFFFFFFFFFFFFFFFFFFFFF8
:20FFC800FFFFFFFFFFFFFFFFFFFFFFFFFFFFFFFFFFFFFF00FFFFFFFF00FFFFFFC500C5FFAA
:18FFE800000000FF00000000FFFFFFFFFFFFFFFFFFFFFFFFFFFFFFFF12
:00000001FF
